{
  "contractName": "InfinityMoney",
  "abi": [
    {
      "constant": true,
      "inputs": [
        {
          "name": "",
          "type": "uint256"
        }
      ],
      "name": "LEVEL_PRICE",
      "outputs": [
        {
          "name": "",
          "type": "uint256"
        }
      ],
      "payable": false,
      "stateMutability": "view",
      "type": "function"
    },
    {
      "constant": true,
      "inputs": [],
      "name": "ownerWallet",
      "outputs": [
        {
          "name": "",
          "type": "address"
        }
      ],
      "payable": false,
      "stateMutability": "view",
      "type": "function"
    },
    {
      "constant": true,
      "inputs": [
        {
          "name": "",
          "type": "uint256"
        }
      ],
      "name": "userList",
      "outputs": [
        {
          "name": "",
          "type": "address"
        }
      ],
      "payable": false,
      "stateMutability": "view",
      "type": "function"
    },
    {
      "constant": true,
      "inputs": [],
      "name": "currUserID",
      "outputs": [
        {
          "name": "",
          "type": "uint256"
        }
      ],
      "payable": false,
      "stateMutability": "view",
      "type": "function"
    },
    {
      "constant": true,
      "inputs": [
        {
          "name": "",
          "type": "address"
        }
      ],
      "name": "users",
      "outputs": [
        {
          "name": "isExist",
          "type": "bool"
        },
        {
          "name": "id",
          "type": "uint256"
        },
        {
          "name": "referrerID",
          "type": "uint256"
        }
      ],
      "payable": false,
      "stateMutability": "view",
      "type": "function"
    },
    {
      "inputs": [
        {
          "name": "_owner2",
          "type": "address"
        },
        {
          "name": "_owner3",
          "type": "address"
        },
        {
          "name": "_owner4",
          "type": "address"
        }
      ],
      "payable": false,
      "stateMutability": "nonpayable",
      "type": "constructor"
    },
    {
      "payable": true,
      "stateMutability": "payable",
      "type": "fallback"
    },
    {
      "anonymous": false,
      "inputs": [
        {
          "indexed": true,
          "name": "_user",
          "type": "address"
        },
        {
          "indexed": true,
          "name": "_referrer",
          "type": "address"
        },
        {
          "indexed": false,
          "name": "_time",
          "type": "uint256"
        }
      ],
      "name": "regLevelEvent",
      "type": "event"
    },
    {
      "anonymous": false,
      "inputs": [
        {
          "indexed": true,
          "name": "_user",
          "type": "address"
        },
        {
          "indexed": false,
          "name": "_level",
          "type": "uint256"
        },
        {
          "indexed": false,
          "name": "_time",
          "type": "uint256"
        }
      ],
      "name": "buyLevelEvent",
      "type": "event"
    },
    {
      "anonymous": false,
      "inputs": [
        {
          "indexed": true,
          "name": "_user",
          "type": "address"
        },
        {
          "indexed": false,
          "name": "_level",
          "type": "uint256"
        },
        {
          "indexed": false,
          "name": "_time",
          "type": "uint256"
        }
      ],
      "name": "prolongateLevelEvent",
      "type": "event"
    },
    {
      "anonymous": false,
      "inputs": [
        {
          "indexed": true,
          "name": "_user",
          "type": "address"
        },
        {
          "indexed": true,
          "name": "_referral",
          "type": "address"
        },
        {
          "indexed": false,
          "name": "_level",
          "type": "uint256"
        },
        {
          "indexed": false,
          "name": "_time",
          "type": "uint256"
        }
      ],
      "name": "getMoneyForLevelEvent",
      "type": "event"
    },
    {
      "anonymous": false,
      "inputs": [
        {
          "indexed": true,
          "name": "_user",
          "type": "address"
        },
        {
          "indexed": true,
          "name": "_referral",
          "type": "address"
        },
        {
          "indexed": false,
          "name": "_level",
          "type": "uint256"
        },
        {
          "indexed": false,
          "name": "_time",
          "type": "uint256"
        }
      ],
      "name": "lostMoneyForLevelEvent",
      "type": "event"
    },
    {
      "constant": false,
      "inputs": [
        {
          "name": "_referrerID",
          "type": "uint256"
        }
      ],
      "name": "regUser",
      "outputs": [],
      "payable": true,
      "stateMutability": "payable",
      "type": "function"
    },
    {
      "constant": false,
      "inputs": [
        {
          "name": "_level",
          "type": "uint256"
        }
      ],
      "name": "buyLevel",
      "outputs": [],
      "payable": true,
      "stateMutability": "payable",
      "type": "function"
    },
    {
      "constant": true,
      "inputs": [
        {
          "name": "_user",
          "type": "address"
        }
      ],
      "name": "findFreeReferrer",
      "outputs": [
        {
          "name": "",
          "type": "address"
        }
      ],
      "payable": false,
      "stateMutability": "view",
      "type": "function"
    },
    {
      "constant": true,
      "inputs": [
        {
          "name": "_user",
          "type": "address"
        }
      ],
      "name": "viewUser",
      "outputs": [
        {
          "name": "",
          "type": "uint256[]"
        },
        {
          "name": "",
          "type": "uint256"
        },
        {
          "name": "",
          "type": "uint256"
        }
      ],
      "payable": false,
      "stateMutability": "view",
      "type": "function"
    },
    {
      "constant": true,
      "inputs": [
        {
          "name": "_user",
          "type": "address"
        }
      ],
      "name": "viewUserReferral",
      "outputs": [
        {
          "name": "",
          "type": "address[]"
        }
      ],
      "payable": false,
      "stateMutability": "view",
      "type": "function"
    },
    {
      "constant": true,
      "inputs": [
        {
          "name": "_user",
          "type": "address"
        },
        {
          "name": "_level",
          "type": "uint256"
        }
      ],
      "name": "viewUserLevelExpired",
      "outputs": [
        {
          "name": "",
          "type": "uint256"
        }
      ],
      "payable": false,
      "stateMutability": "view",
      "type": "function"
    }
  ],
  "bytecode": "0x608060405260026001556283d60060025560006006553480156200002257600080fd5b5060405160608062003550833981018060405260608110156200004457600080fd5b81019080805190602001909291908051906020019092919080519060200190929190505050336000806101000a81548173ffffffffffffffffffffffffffffffffffffffff021916908373ffffffffffffffffffffffffffffffffffffffff160217905550666a94d74f43000060036000600181526020019081526020016000208190555066b1a2bc2ec5000060036000600281526020019081526020016000208190555067016345785d8a000060036000600381526020019081526020016000208190555067058d15e176280000600360006004815260200190815260200160002081905550670de0b6b3a76400006003600060058152602001908152602001600020819055506722b1c8c1227a0000600360006006815260200190815260200160002081905550674563918244f40000600360006007815260200190815260200160002081905550678ac7230489e800006003600060088152602001908152602001600020819055506801158e460913d0000060036000600981526020019081526020016000208190555068022b1c8c1227a0000060036000600a815260200190815260200160002081905550620001fd62000c15565b6200020762000c15565b6200021162000c15565b6200021b62000c15565b6006600081548092919060010191905055506080604051908101604052806001151581526020016006548152602001600081526020016000604051908082528060200260200182016040528015620002825781602001602082028038833980820191505090505b50815250935083600460008060009054906101000a900473ffffffffffffffffffffffffffffffffffffffff1673ffffffffffffffffffffffffffffffffffffffff1673ffffffffffffffffffffffffffffffffffffffff16815260200190815260200160002060008201518160000160006101000a81548160ff021916908315150217905550602082015181600101556040820151816002015560608201518160030190805190602001906200033b92919062000c40565b509050506000809054906101000a900473ffffffffffffffffffffffffffffffffffffffff1660056000600654815260200190815260200160002060006101000a81548173ffffffffffffffffffffffffffffffffffffffff021916908373ffffffffffffffffffffffffffffffffffffffff16021790555060066000815480929190600101919050555060806040519081016040528060011515815260200160065481526020016001815260200160006040519080825280602002602001820160405280156200041b5781602001602082028038833980820191505090505b50815250925082600460008973ffffffffffffffffffffffffffffffffffffffff1673ffffffffffffffffffffffffffffffffffffffff16815260200190815260200160002060008201518160000160006101000a81548160ff02191690831515021790555060208201518160010155604082015181600201556060820151816003019080519060200190620004b392919062000c40565b509050508660056000600654815260200190815260200160002060006101000a81548173ffffffffffffffffffffffffffffffffffffffff021916908373ffffffffffffffffffffffffffffffffffffffff160217905550600460008060009054906101000a900473ffffffffffffffffffffffffffffffffffffffff1673ffffffffffffffffffffffffffffffffffffffff1673ffffffffffffffffffffffffffffffffffffffff1681526020019081526020016000206003018790806001815401808255809150509060018203906000526020600020016000909192909190916101000a81548173ffffffffffffffffffffffffffffffffffffffff021916908373ffffffffffffffffffffffffffffffffffffffff160217905550506006600081548092919060010191905055506080604051908101604052806001151581526020016006548152602001600181526020016000604051908082528060200260200182016040528015620006395781602001602082028038833980820191505090505b50815250915081600460008873ffffffffffffffffffffffffffffffffffffffff1673ffffffffffffffffffffffffffffffffffffffff16815260200190815260200160002060008201518160000160006101000a81548160ff02191690831515021790555060208201518160010155604082015181600201556060820151816003019080519060200190620006d192919062000c40565b509050508560056000600654815260200190815260200160002060006101000a81548173ffffffffffffffffffffffffffffffffffffffff021916908373ffffffffffffffffffffffffffffffffffffffff160217905550600460008060009054906101000a900473ffffffffffffffffffffffffffffffffffffffff1673ffffffffffffffffffffffffffffffffffffffff1673ffffffffffffffffffffffffffffffffffffffff1681526020019081526020016000206003018690806001815401808255809150509060018203906000526020600020016000909192909190916101000a81548173ffffffffffffffffffffffffffffffffffffffff021916908373ffffffffffffffffffffffffffffffffffffffff160217905550506006600081548092919060010191905055506080604051908101604052806001151581526020016006548152602001600281526020016000604051908082528060200260200182016040528015620008575781602001602082028038833980820191505090505b50815250905080600460008773ffffffffffffffffffffffffffffffffffffffff1673ffffffffffffffffffffffffffffffffffffffff16815260200190815260200160002060008201518160000160006101000a81548160ff02191690831515021790555060208201518160010155604082015181600201556060820151816003019080519060200190620008ef92919062000c40565b509050508460056000600654815260200190815260200160002060006101000a81548173ffffffffffffffffffffffffffffffffffffffff021916908373ffffffffffffffffffffffffffffffffffffffff160217905550600460008873ffffffffffffffffffffffffffffffffffffffff1673ffffffffffffffffffffffffffffffffffffffff1681526020019081526020016000206003018590806001815401808255809150509060018203906000526020600020016000909192909190916101000a81548173ffffffffffffffffffffffffffffffffffffffff021916908373ffffffffffffffffffffffffffffffffffffffff160217905550508673ffffffffffffffffffffffffffffffffffffffff163373ffffffffffffffffffffffffffffffffffffffff167f788c06d2405ae89dd3f0528d38be7691289474d72176408bc2c2406dc5e342f1426040518082815260200191505060405180910390a36000600190505b600a8111151562000c0757640cef5e80e3600460008060009054906101000a900473ffffffffffffffffffffffffffffffffffffffff1673ffffffffffffffffffffffffffffffffffffffff1673ffffffffffffffffffffffffffffffffffffffff168152602001908152602001600020600401600083815260200190815260200160002081905550640cef5e80e3600460008a73ffffffffffffffffffffffffffffffffffffffff1673ffffffffffffffffffffffffffffffffffffffff168152602001908152602001600020600401600083815260200190815260200160002081905550640cef5e80e3600460008973ffffffffffffffffffffffffffffffffffffffff1673ffffffffffffffffffffffffffffffffffffffff168152602001908152602001600020600401600083815260200190815260200160002081905550640cef5e80e3600460008873ffffffffffffffffffffffffffffffffffffffff1673ffffffffffffffffffffffffffffffffffffffff168152602001908152602001600020600401600083815260200190815260200160002081905550808060010191505062000a59565b505050505050505062000d15565b6080604051908101604052806000151581526020016000815260200160008152602001606081525090565b82805482825590600052602060002090810192821562000cbc579160200282015b8281111562000cbb5782518260006101000a81548173ffffffffffffffffffffffffffffffffffffffff021916908373ffffffffffffffffffffffffffffffffffffffff1602179055509160200191906001019062000c61565b5b50905062000ccb919062000ccf565b5090565b62000d1291905b8082111562000d0e57600081816101000a81549073ffffffffffffffffffffffffffffffffffffffff02191690555060010162000cd6565b5090565b90565b61282b8062000d256000396000f3fe6080604052600436106100af576000357c0100000000000000000000000000000000000000000000000000000000900463ffffffff168063132c8c9b146105125780634a4baa8f146105a35780636cc8bda71461064957806379378e30146106fd5780638853b53e1461074c5780639335dcb71461077a5780639f4216e8146107d1578063a4bb170d1461084c578063a87430ba14610877578063d2840073146108ee578063f6838a721461095d575b60006003600060018152602001908152602001600020543414156100d6576001905061029a565b6003600060028152602001908152602001600020543414156100fb5760029050610299565b6003600060038152602001908152602001600020543414156101205760039050610298565b6003600060048152602001908152602001600020543414156101455760049050610297565b60036000600581526020019081526020016000205434141561016a5760059050610296565b60036000600681526020019081526020016000205434141561018f5760069050610295565b6003600060078152602001908152602001600020543414156101b45760079050610294565b6003600060088152602001908152602001600020543414156101d95760089050610293565b6003600060098152602001908152602001600020543414156101fe5760099050610292565b60036000600a81526020019081526020016000205434141561022357600a9050610291565b6040517f08c379a00000000000000000000000000000000000000000000000000000000081526004018080602001828103825260148152602001807f496e636f72726563742056616c75652073656e6400000000000000000000000081525060200191505060405180910390fd5b5b5b5b5b5b5b5b5b5b600460003373ffffffffffffffffffffffffffffffffffffffff1673ffffffffffffffffffffffffffffffffffffffff16815260200190815260200160002060000160009054906101000a900460ff16156102fd576102f88161098b565b61050f565b600181141561047a576000809050600061035b6000368080601f016020809104026020016040519081016040528093929190818152602001838380828437600081840152601f19601f82011690508083019250505050505050610ecc565b9050600460008273ffffffffffffffffffffffffffffffffffffffff1673ffffffffffffffffffffffffffffffffffffffff16815260200190815260200160002060000160009054906101000a900460ff16156103fc57600460008273ffffffffffffffffffffffffffffffffffffffff1673ffffffffffffffffffffffffffffffffffffffff16815260200190815260200160002060010154915061046a565b6040517f08c379a00000000000000000000000000000000000000000000000000000000081526004018080602001828103825260128152602001807f496e636f7272656374207265666572726572000000000000000000000000000081525060200191505060405180910390fd5b61047382610eda565b505061050e565b6040517f08c379a00000000000000000000000000000000000000000000000000000000081526004018080602001828103825260238152602001807f506c6561736520627579206669727374206c6576656c20666f7220302e30332081526020017f455448000000000000000000000000000000000000000000000000000000000081525060400191505060405180910390fd5b5b50005b34801561051e57600080fd5b506105616004803603602081101561053557600080fd5b81019080803573ffffffffffffffffffffffffffffffffffffffff1690602001909291905050506114ec565b604051808273ffffffffffffffffffffffffffffffffffffffff1673ffffffffffffffffffffffffffffffffffffffff16815260200191505060405180910390f35b3480156105af57600080fd5b506105f2600480360360208110156105c657600080fd5b81019080803573ffffffffffffffffffffffffffffffffffffffff169060200190929190505050611a0b565b6040518080602001828103825283818151815260200191508051906020019060200280838360005b8381101561063557808201518184015260208101905061061a565b505050509050019250505060405180910390f35b34801561065557600080fd5b506106986004803603602081101561066c57600080fd5b81019080803573ffffffffffffffffffffffffffffffffffffffff169060200190929190505050611adb565b6040518080602001848152602001838152602001828103825285818151815260200191508051906020019060200280838360005b838110156106e75780820151818401526020810190506106cc565b5050505090500194505050505060405180910390f35b34801561070957600080fd5b506107366004803603602081101561072057600080fd5b8101908080359060200190929190505050611c38565b6040518082815260200191505060405180910390f35b6107786004803603602081101561076257600080fd5b8101908080359060200190929190505050610eda565b005b34801561078657600080fd5b5061078f611c50565b604051808273ffffffffffffffffffffffffffffffffffffffff1673ffffffffffffffffffffffffffffffffffffffff16815260200191505060405180910390f35b3480156107dd57600080fd5b5061080a600480360360208110156107f457600080fd5b8101908080359060200190929190505050611c75565b604051808273ffffffffffffffffffffffffffffffffffffffff1673ffffffffffffffffffffffffffffffffffffffff16815260200191505060405180910390f35b34801561085857600080fd5b50610861611ca8565b6040518082815260200191505060405180910390f35b34801561088357600080fd5b506108c66004803603602081101561089a57600080fd5b81019080803573ffffffffffffffffffffffffffffffffffffffff169060200190929190505050611cae565b6040518084151515158152602001838152602001828152602001935050505060405180910390f35b3480156108fa57600080fd5b506109476004803603604081101561091157600080fd5b81019080803573ffffffffffffffffffffffffffffffffffffffff16906020019092919080359060200190929190505050611ce5565b6040518082815260200191505060405180910390f35b6109896004803603602081101561097357600080fd5b810190808035906020019092919050505061098b565b005b600460003373ffffffffffffffffffffffffffffffffffffffff1673ffffffffffffffffffffffffffffffffffffffff16815260200190815260200160002060000160009054906101000a900460ff161515610a4f576040517f08c379a000000000000000000000000000000000000000000000000000000000815260040180806020018281038252600e8152602001807f55736572206e6f7420657869737400000000000000000000000000000000000081525060200191505060405180910390fd5b600081118015610a605750600a8111155b1515610ad4576040517f08c379a000000000000000000000000000000000000000000000000000000000815260040180806020018281038252600f8152602001807f496e636f7272656374206c6576656c000000000000000000000000000000000081525060200191505060405180910390fd5b6001811415610bd15760036000600181526020019081526020016000205434141515610b68576040517f08c379a000000000000000000000000000000000000000000000000000000000815260040180806020018281038252600f8152602001807f496e636f72726563742056616c7565000000000000000000000000000000000081525060200191505060405180910390fd5b600254600460003373ffffffffffffffffffffffffffffffffffffffff1673ffffffffffffffffffffffffffffffffffffffff16815260200190815260200160002060040160006001815260200190815260200160002060008282540192505081905550610e69565b600360008281526020019081526020016000205434141515610c5b576040517f08c379a000000000000000000000000000000000000000000000000000000000815260040180806020018281038252600f8152602001807f496e636f72726563742056616c7565000000000000000000000000000000000081525060200191505060405180910390fd5b60006001820390505b6000811115610d465742600460003373ffffffffffffffffffffffffffffffffffffffff1673ffffffffffffffffffffffffffffffffffffffff16815260200190815260200160002060040160008381526020019081526020016000205410151515610d38576040517f08c379a00000000000000000000000000000000000000000000000000000000081526004018080602001828103825260168152602001807f427579207468652070726576696f7573206c6576656c0000000000000000000081525060200191505060405180910390fd5b808060019003915050610c64565b506000600460003373ffffffffffffffffffffffffffffffffffffffff1673ffffffffffffffffffffffffffffffffffffffff1681526020019081526020016000206004016000838152602001908152602001600020541415610e04576002544201600460003373ffffffffffffffffffffffffffffffffffffffff1673ffffffffffffffffffffffffffffffffffffffff168152602001908152602001600020600401600083815260200190815260200160002081905550610e68565b600254600460003373ffffffffffffffffffffffffffffffffffffffff1673ffffffffffffffffffffffffffffffffffffffff1681526020019081526020016000206004016000838152602001908152602001600020600082825401925050819055505b5b610e738133611d43565b3373ffffffffffffffffffffffffffffffffffffffff167f9ea70f0eb33d898c3336ecf2c0e3cf1c0195c13ad3fbcb34447777dbfd5ff2d08242604051808381526020018281526020019250505060405180910390a250565b600060148201519050919050565b600460003373ffffffffffffffffffffffffffffffffffffffff1673ffffffffffffffffffffffffffffffffffffffff16815260200190815260200160002060000160009054906101000a900460ff16151515610f9f576040517f08c379a000000000000000000000000000000000000000000000000000000000815260040180806020018281038252600a8152602001807f557365722065786973740000000000000000000000000000000000000000000081525060200191505060405180910390fd5b600081118015610fb157506006548111155b1515611025576040517f08c379a00000000000000000000000000000000000000000000000000000000081526004018080602001828103825260158152602001807f496e636f7272656374207265666572726572204964000000000000000000000081525060200191505060405180910390fd5b600360006001815260200190815260200160002054341415156110b0576040517f08c379a000000000000000000000000000000000000000000000000000000000815260040180806020018281038252600f8152602001807f496e636f72726563742056616c7565000000000000000000000000000000000081525060200191505060405180910390fd5b600154600460006005600085815260200190815260200160002060009054906101000a900473ffffffffffffffffffffffffffffffffffffffff1673ffffffffffffffffffffffffffffffffffffffff1673ffffffffffffffffffffffffffffffffffffffff168152602001908152602001600020600301805490501015156111b457600460006111736005600085815260200190815260200160002060009054906101000a900473ffffffffffffffffffffffffffffffffffffffff166114ec565b73ffffffffffffffffffffffffffffffffffffffff1673ffffffffffffffffffffffffffffffffffffffff1681526020019081526020016000206001015490505b6111bc612707565b600660008154809291906001019190505550608060405190810160405280600115158152602001600654815260200183815260200160006040519080825280602002602001820160405280156112215781602001602082028038833980820191505090505b50815250905080600460003373ffffffffffffffffffffffffffffffffffffffff1673ffffffffffffffffffffffffffffffffffffffff16815260200190815260200160002060008201518160000160006101000a81548160ff021916908315150217905550602082015181600101556040820151816002015560608201518160030190805190602001906112b7929190612732565b509050503360056000600654815260200190815260200160002060006101000a81548173ffffffffffffffffffffffffffffffffffffffff021916908373ffffffffffffffffffffffffffffffffffffffff1602179055506002544201600460003373ffffffffffffffffffffffffffffffffffffffff1673ffffffffffffffffffffffffffffffffffffffff16815260200190815260200160002060040160006001815260200190815260200160002081905550600460006005600085815260200190815260200160002060009054906101000a900473ffffffffffffffffffffffffffffffffffffffff1673ffffffffffffffffffffffffffffffffffffffff1673ffffffffffffffffffffffffffffffffffffffff1681526020019081526020016000206003013390806001815401808255809150509060018203906000526020600020016000909192909190916101000a81548173ffffffffffffffffffffffffffffffffffffffff021916908373ffffffffffffffffffffffffffffffffffffffff16021790555050611450600133611d43565b6005600083815260200190815260200160002060009054906101000a900473ffffffffffffffffffffffffffffffffffffffff1673ffffffffffffffffffffffffffffffffffffffff163373ffffffffffffffffffffffffffffffffffffffff167f788c06d2405ae89dd3f0528d38be7691289474d72176408bc2c2406dc5e342f1426040518082815260200191505060405180910390a35050565b6000600154600460008473ffffffffffffffffffffffffffffffffffffffff1673ffffffffffffffffffffffffffffffffffffffff16815260200190815260200160002060030180549050101561154557819050611a06565b6060607e6040519080825280602002602001820160405280156115775781602001602082028038833980820191505090505b509050600460008473ffffffffffffffffffffffffffffffffffffffff1673ffffffffffffffffffffffffffffffffffffffff16815260200190815260200160002060030160008154811015156115ca57fe5b9060005260206000200160009054906101000a900473ffffffffffffffffffffffffffffffffffffffff1681600081518110151561160457fe5b9060200190602002019073ffffffffffffffffffffffffffffffffffffffff16908173ffffffffffffffffffffffffffffffffffffffff1681525050600460008473ffffffffffffffffffffffffffffffffffffffff1673ffffffffffffffffffffffffffffffffffffffff168152602001908152602001600020600301600181548110151561169057fe5b9060005260206000200160009054906101000a900473ffffffffffffffffffffffffffffffffffffffff168160018151811015156116ca57fe5b9060200190602002019073ffffffffffffffffffffffffffffffffffffffff16908173ffffffffffffffffffffffffffffffffffffffff16815250506000806001905060008090505b607e8110156119885760015460046000868481518110151561173157fe5b9060200190602002015173ffffffffffffffffffffffffffffffffffffffff1673ffffffffffffffffffffffffffffffffffffffff16815260200190815260200160002060030180549050141561195857603e8110156119535760046000858381518110151561179d57fe5b9060200190602002015173ffffffffffffffffffffffffffffffffffffffff1673ffffffffffffffffffffffffffffffffffffffff16815260200190815260200160002060030160008154811015156117f257fe5b9060005260206000200160009054906101000a900473ffffffffffffffffffffffffffffffffffffffff16846002600184010281518110151561183157fe5b9060200190602002019073ffffffffffffffffffffffffffffffffffffffff16908173ffffffffffffffffffffffffffffffffffffffff168152505060046000858381518110151561187f57fe5b9060200190602002015173ffffffffffffffffffffffffffffffffffffffff1673ffffffffffffffffffffffffffffffffffffffff16815260200190815260200160002060030160018154811015156118d457fe5b9060005260206000200160009054906101000a900473ffffffffffffffffffffffffffffffffffffffff16846001600260018501020181518110151561191657fe5b9060200190602002019073ffffffffffffffffffffffffffffffffffffffff16908173ffffffffffffffffffffffffffffffffffffffff16815250505b61197b565b60009150838181518110151561196a57fe5b906020019060200201519250611988565b8080600101915050611713565b50801515156119ff576040517f08c379a00000000000000000000000000000000000000000000000000000000081526004018080602001828103825260108152602001807f4e6f20467265652052656665727265720000000000000000000000000000000081525060200191505060405180910390fd5b8193505050505b919050565b6060600460008373ffffffffffffffffffffffffffffffffffffffff1673ffffffffffffffffffffffffffffffffffffffff168152602001908152602001600020600301805480602002602001604051908101604052809291908181526020018280548015611acf57602002820191906000526020600020905b8160009054906101000a900473ffffffffffffffffffffffffffffffffffffffff1673ffffffffffffffffffffffffffffffffffffffff1681526020019060010190808311611a85575b50505050509050919050565b60606000806060600b604051908082528060200260200182016040528015611b125781602001602082028038833980820191505090505b5090506000600190505b600b811015611ba257600460008773ffffffffffffffffffffffffffffffffffffffff1673ffffffffffffffffffffffffffffffffffffffff1681526020019081526020016000206004016000828152602001908152602001600020548282815181101515611b8757fe5b90602001906020020181815250508080600101915050611b1c565b5080600460008773ffffffffffffffffffffffffffffffffffffffff1673ffffffffffffffffffffffffffffffffffffffff16815260200190815260200160002060010154600460008873ffffffffffffffffffffffffffffffffffffffff1673ffffffffffffffffffffffffffffffffffffffff16815260200190815260200160002060020154935093509350509193909250565b60036020528060005260406000206000915090505481565b6000809054906101000a900473ffffffffffffffffffffffffffffffffffffffff1681565b60056020528060005260406000206000915054906101000a900473ffffffffffffffffffffffffffffffffffffffff1681565b60065481565b60046020528060005260406000206000915090508060000160009054906101000a900460ff16908060010154908060020154905083565b6000600460008473ffffffffffffffffffffffffffffffffffffffff1673ffffffffffffffffffffffffffffffffffffffff168152602001908152602001600020600401600083815260200190815260200160002054905092915050565b60008060008060006001871480611d5a5750600687145b15611ddc5760056000600460008973ffffffffffffffffffffffffffffffffffffffff1673ffffffffffffffffffffffffffffffffffffffff16815260200190815260200160002060020154815260200190815260200160002060009054906101000a900473ffffffffffffffffffffffffffffffffffffffff1694506124d0565b6002871480611deb5750600787145b15611ee55760056000600460008973ffffffffffffffffffffffffffffffffffffffff1673ffffffffffffffffffffffffffffffffffffffff16815260200190815260200160002060020154815260200190815260200160002060009054906101000a900473ffffffffffffffffffffffffffffffffffffffff16935060056000600460008773ffffffffffffffffffffffffffffffffffffffff1673ffffffffffffffffffffffffffffffffffffffff16815260200190815260200160002060020154815260200190815260200160002060009054906101000a900473ffffffffffffffffffffffffffffffffffffffff1694506124cf565b6003871480611ef45750600887145b156120665760056000600460008973ffffffffffffffffffffffffffffffffffffffff1673ffffffffffffffffffffffffffffffffffffffff16815260200190815260200160002060020154815260200190815260200160002060009054906101000a900473ffffffffffffffffffffffffffffffffffffffff16935060056000600460008773ffffffffffffffffffffffffffffffffffffffff1673ffffffffffffffffffffffffffffffffffffffff16815260200190815260200160002060020154815260200190815260200160002060009054906101000a900473ffffffffffffffffffffffffffffffffffffffff16925060056000600460008673ffffffffffffffffffffffffffffffffffffffff1673ffffffffffffffffffffffffffffffffffffffff16815260200190815260200160002060020154815260200190815260200160002060009054906101000a900473ffffffffffffffffffffffffffffffffffffffff1694506124ce565b60048714806120755750600987145b1561225f5760056000600460008973ffffffffffffffffffffffffffffffffffffffff1673ffffffffffffffffffffffffffffffffffffffff16815260200190815260200160002060020154815260200190815260200160002060009054906101000a900473ffffffffffffffffffffffffffffffffffffffff16935060056000600460008773ffffffffffffffffffffffffffffffffffffffff1673ffffffffffffffffffffffffffffffffffffffff16815260200190815260200160002060020154815260200190815260200160002060009054906101000a900473ffffffffffffffffffffffffffffffffffffffff16925060056000600460008673ffffffffffffffffffffffffffffffffffffffff1673ffffffffffffffffffffffffffffffffffffffff16815260200190815260200160002060020154815260200190815260200160002060009054906101000a900473ffffffffffffffffffffffffffffffffffffffff16915060056000600460008573ffffffffffffffffffffffffffffffffffffffff1673ffffffffffffffffffffffffffffffffffffffff16815260200190815260200160002060020154815260200190815260200160002060009054906101000a900473ffffffffffffffffffffffffffffffffffffffff1694506124cd565b600587148061226e5750600a87145b156124cc5760056000600460008973ffffffffffffffffffffffffffffffffffffffff1673ffffffffffffffffffffffffffffffffffffffff16815260200190815260200160002060020154815260200190815260200160002060009054906101000a900473ffffffffffffffffffffffffffffffffffffffff16935060056000600460008773ffffffffffffffffffffffffffffffffffffffff1673ffffffffffffffffffffffffffffffffffffffff16815260200190815260200160002060020154815260200190815260200160002060009054906101000a900473ffffffffffffffffffffffffffffffffffffffff16925060056000600460008673ffffffffffffffffffffffffffffffffffffffff1673ffffffffffffffffffffffffffffffffffffffff16815260200190815260200160002060020154815260200190815260200160002060009054906101000a900473ffffffffffffffffffffffffffffffffffffffff16915060056000600460008573ffffffffffffffffffffffffffffffffffffffff1673ffffffffffffffffffffffffffffffffffffffff16815260200190815260200160002060020154815260200190815260200160002060009054906101000a900473ffffffffffffffffffffffffffffffffffffffff16905060056000600460008473ffffffffffffffffffffffffffffffffffffffff1673ffffffffffffffffffffffffffffffffffffffff16815260200190815260200160002060020154815260200190815260200160002060009054906101000a900473ffffffffffffffffffffffffffffffffffffffff1694505b5b5b5b5b600460008673ffffffffffffffffffffffffffffffffffffffff1673ffffffffffffffffffffffffffffffffffffffff16815260200190815260200160002060000160009054906101000a900460ff16151561255e57600560006001815260200190815260200160002060009054906101000a900473ffffffffffffffffffffffffffffffffffffffff1694505b600080905042600460008873ffffffffffffffffffffffffffffffffffffffff1673ffffffffffffffffffffffffffffffffffffffff16815260200190815260200160002060040160008a81526020019081526020016000205410151561267e578573ffffffffffffffffffffffffffffffffffffffff166108fc600360008b8152602001908152602001600020549081150290604051600060405180830381858888f193505050509050801561267d573373ffffffffffffffffffffffffffffffffffffffff168673ffffffffffffffffffffffffffffffffffffffff167fce7dc747411ac40191c5335943fcc79d8c2d8c01ca5ae83d9fed160409fa61208a42604051808381526020018281526020019250505060405180910390a35b5b8015156126fd573373ffffffffffffffffffffffffffffffffffffffff168673ffffffffffffffffffffffffffffffffffffffff167f7df0f6bac5c770af7783500bb7f1c0d073adb11316004ba6f9f6c704af1a1aea8a42604051808381526020018281526020019250505060405180910390a36126fc8887611d43565b5b5050505050505050565b6080604051908101604052806000151581526020016000815260200160008152602001606081525090565b8280548282559060005260206000209081019282156127ab579160200282015b828111156127aa5782518260006101000a81548173ffffffffffffffffffffffffffffffffffffffff021916908373ffffffffffffffffffffffffffffffffffffffff16021790555091602001919060010190612752565b5b5090506127b891906127bc565b5090565b6127fc91905b808211156127f857600081816101000a81549073ffffffffffffffffffffffffffffffffffffffff0219169055506001016127c2565b5090565b9056fea165627a7a72305820c33709257f34ff4d766a160898eba2c817be28d8c4fa35a6c7c0f73452d3de2c0029",
  "source": "pragma solidity 0.5.0;\n\ncontract InfinityMoney {\n    address public ownerWallet;\n\n    struct UserStruct {\n        bool isExist;\n        uint id;\n        uint referrerID;\n        address[] referral;\n        mapping(uint => uint) levelExpired;\n    }\n\n    uint REFERRER_1_LEVEL_LIMIT = 2;\n    uint PERIOD_LENGTH = 100 days;\n\n    mapping(uint => uint) public LEVEL_PRICE;\n\n    mapping (address => UserStruct) public users;\n    mapping (uint => address) public userList;\n    uint public currUserID = 0;\n\n    event regLevelEvent(address indexed _user, address indexed _referrer, uint _time);\n    event buyLevelEvent(address indexed _user, uint _level, uint _time);\n    event prolongateLevelEvent(address indexed _user, uint _level, uint _time);\n    event getMoneyForLevelEvent(address indexed _user, address indexed _referral, uint _level, uint _time);\n    event lostMoneyForLevelEvent(address indexed _user, address indexed _referral, uint _level, uint _time);\n\n    constructor(address _owner2, address _owner3, address _owner4) public {\n        ownerWallet = msg.sender;\n\n        LEVEL_PRICE[1] = 0.03 ether;\n        LEVEL_PRICE[2] = 0.05 ether;\n        LEVEL_PRICE[3] = 0.1 ether;\n        LEVEL_PRICE[4] = 0.4 ether;\n        LEVEL_PRICE[5] = 1 ether;\n        LEVEL_PRICE[6] = 2.5 ether;\n        LEVEL_PRICE[7] = 5 ether;\n        LEVEL_PRICE[8] = 10 ether;\n        LEVEL_PRICE[9] = 20 ether;\n        LEVEL_PRICE[10] = 40 ether;\n\n        UserStruct memory userStruct;\n        UserStruct memory userStruct2;\n        UserStruct memory userStruct3;\n        UserStruct memory userStruct4;\n        currUserID++;\n\n        //-- owner1\n        userStruct = UserStruct({\n            isExist: true,\n            id: currUserID,\n            referrerID: 0,\n            referral: new address[](0)\n        });\n        users[ownerWallet] = userStruct;\n        userList[currUserID] = ownerWallet;\n\n        //-- owner2\n        currUserID++;\n        userStruct2 = UserStruct({\n            isExist: true,\n            id: currUserID,\n            referrerID: 1,\n            referral: new address[](0)\n        });\n        users[_owner2] = userStruct2;\n        userList[currUserID] = _owner2;\n        users[ownerWallet].referral.push(_owner2);\n\n        //-- owner3\n        currUserID++;\n        userStruct3 = UserStruct({\n            isExist: true,\n            id: currUserID,\n            referrerID: 1,\n            referral: new address[](0)\n        });\n        users[_owner3] = userStruct3;\n        userList[currUserID] = _owner3;\n        users[ownerWallet].referral.push(_owner3);\n\n        //-- owner4\n        currUserID++;\n        userStruct4 = UserStruct({\n            isExist: true,\n            id: currUserID,\n            referrerID: 2,\n            referral: new address[](0)\n        });\n        users[_owner4] = userStruct4;\n        userList[currUserID] = _owner4;\n        users[_owner2].referral.push(_owner4);\n\n        emit regLevelEvent(msg.sender, _owner2, now);\n\n        for(uint i = 1; i <= 10; i++) {\n            users[ownerWallet].levelExpired[i] = 55555555555;\n            users[_owner2].levelExpired[i] = 55555555555;\n            users[_owner3].levelExpired[i] = 55555555555;\n            users[_owner4].levelExpired[i] = 55555555555;\n        }\n    }\n\n    function () external payable {\n        uint level;\n\n        if(msg.value == LEVEL_PRICE[1]) level = 1;\n        else if(msg.value == LEVEL_PRICE[2]) level = 2;\n        else if(msg.value == LEVEL_PRICE[3]) level = 3;\n        else if(msg.value == LEVEL_PRICE[4]) level = 4;\n        else if(msg.value == LEVEL_PRICE[5]) level = 5;\n        else if(msg.value == LEVEL_PRICE[6]) level = 6;\n        else if(msg.value == LEVEL_PRICE[7]) level = 7;\n        else if(msg.value == LEVEL_PRICE[8]) level = 8;\n        else if(msg.value == LEVEL_PRICE[9]) level = 9;\n        else if(msg.value == LEVEL_PRICE[10]) level = 10;\n        else revert('Incorrect Value send');\n\n        if(users[msg.sender].isExist) buyLevel(level);\n        else if(level == 1) {\n            uint refId = 0;\n            address referrer = bytesToAddress(msg.data);\n\n            if(users[referrer].isExist) refId = users[referrer].id;\n            else revert('Incorrect referrer');\n\n            regUser(refId);\n        }\n        else revert('Please buy first level for 0.03 ETH');\n    }\n\n    function regUser(uint _referrerID) public payable {\n        require(!users[msg.sender].isExist, 'User exist');\n        require(_referrerID > 0 && _referrerID <= currUserID, 'Incorrect referrer Id');\n        require(msg.value == LEVEL_PRICE[1], 'Incorrect Value');\n\n        if(users[userList[_referrerID]].referral.length >= REFERRER_1_LEVEL_LIMIT) _referrerID = users[findFreeReferrer(userList[_referrerID])].id;\n\n        UserStruct memory userStruct;\n        currUserID++;\n\n        userStruct = UserStruct({\n            isExist: true,\n            id: currUserID,\n            referrerID: _referrerID,\n            referral: new address[](0)\n        });\n\n        users[msg.sender] = userStruct;\n        userList[currUserID] = msg.sender;\n\n        users[msg.sender].levelExpired[1] = now + PERIOD_LENGTH;\n\n        users[userList[_referrerID]].referral.push(msg.sender);\n\n        payForLevel(1, msg.sender);\n\n        emit regLevelEvent(msg.sender, userList[_referrerID], now);\n    }\n\n    function buyLevel(uint _level) public payable {\n        require(users[msg.sender].isExist, 'User not exist');\n        require(_level > 0 && _level <= 10, 'Incorrect level');\n\n        if(_level == 1) {\n            require(msg.value == LEVEL_PRICE[1], 'Incorrect Value');\n            users[msg.sender].levelExpired[1] += PERIOD_LENGTH;\n        }\n        else {\n            require(msg.value == LEVEL_PRICE[_level], 'Incorrect Value');\n\n            for(uint l =_level - 1; l > 0; l--) require(users[msg.sender].levelExpired[l] >= now, 'Buy the previous level');\n\n            if(users[msg.sender].levelExpired[_level] == 0) users[msg.sender].levelExpired[_level] = now + PERIOD_LENGTH;\n            else users[msg.sender].levelExpired[_level] += PERIOD_LENGTH;\n        }\n\n        payForLevel(_level, msg.sender);\n\n        emit buyLevelEvent(msg.sender, _level, now);\n    }\n\n\n    function payForLevel(uint _level, address _user) internal {\n        address referer;\n        address referer1;\n        address referer2;\n        address referer3;\n        address referer4;\n\n        if(_level == 1 || _level == 6) {\n            referer = userList[users[_user].referrerID];\n        }\n        else if(_level == 2 || _level == 7) {\n            referer1 = userList[users[_user].referrerID];\n            referer = userList[users[referer1].referrerID];\n        }\n        else if(_level == 3 || _level == 8) {\n            referer1 = userList[users[_user].referrerID];\n            referer2 = userList[users[referer1].referrerID];\n            referer = userList[users[referer2].referrerID];\n        }\n        else if(_level == 4 || _level == 9) {\n            referer1 = userList[users[_user].referrerID];\n            referer2 = userList[users[referer1].referrerID];\n            referer3 = userList[users[referer2].referrerID];\n            referer = userList[users[referer3].referrerID];\n        }\n        else if(_level == 5 || _level == 10) {\n            referer1 = userList[users[_user].referrerID];\n            referer2 = userList[users[referer1].referrerID];\n            referer3 = userList[users[referer2].referrerID];\n            referer4 = userList[users[referer3].referrerID];\n            referer = userList[users[referer4].referrerID];\n        }\n\n        if(!users[referer].isExist) referer = userList[1];\n\n        bool sent = false;\n        if(users[referer].levelExpired[_level] >= now) {\n            sent = address(uint160(referer)).send(LEVEL_PRICE[_level]);\n\n            if (sent) {\n                emit getMoneyForLevelEvent(referer, msg.sender, _level, now);\n            }\n        }\n        if(!sent) {\n            emit lostMoneyForLevelEvent(referer, msg.sender, _level, now);\n\n            payForLevel(_level, referer);\n        }\n    }\n\n    function findFreeReferrer(address _user) public view returns(address) {\n        if(users[_user].referral.length < REFERRER_1_LEVEL_LIMIT) return _user;\n\n        address[] memory referrals = new address[](126);\n        referrals[0] = users[_user].referral[0];\n        referrals[1] = users[_user].referral[1];\n\n        address freeReferrer;\n        bool noFreeReferrer = true;\n\n        for(uint i = 0; i < 126; i++) {\n            if(users[referrals[i]].referral.length == REFERRER_1_LEVEL_LIMIT) {\n                if(i < 62) {\n                    referrals[(i+1)*2] = users[referrals[i]].referral[0];\n                    referrals[(i+1)*2+1] = users[referrals[i]].referral[1];\n                }\n            }\n            else {\n                noFreeReferrer = false;\n                freeReferrer = referrals[i];\n                break;\n            }\n        }\n\n        require(!noFreeReferrer, 'No Free Referrer');\n\n        return freeReferrer;\n    }\n\n    function viewUser(address _user) public view returns(uint[] memory, uint, uint) {\n        uint[] memory levels = new uint[](11);\n\n        for(uint i = 1; i < 11; i++) {\n            levels[i] = users[_user].levelExpired[i];\n        }\n\n        return (levels, users[_user].id, users[_user].referrerID);\n    }\n\n    function viewUserReferral(address _user) public view returns(address[] memory) {\n        return users[_user].referral;\n    }\n\n    function viewUserLevelExpired(address _user, uint _level) public view returns(uint) {\n        return users[_user].levelExpired[_level];\n    }\n\n    function bytesToAddress(bytes memory bys) private pure returns (address addr) {\n        assembly {\n            addr := mload(add(bys, 20))\n        }\n    }\n}\n",
  "sourcePath": "D:/ProgramFiles/XAMPP/htdocs/Blockchain/ethereum-mlm-contract-truffle/contracts/InfinityMoney.sol",
  "compiler": {
    "name": "solc",
    "version": "0.5.0+commit.1d4f565a.Emscripten.clang"
  },
  "schemaVersion": "3.0.1",
  "updatedAt": "2020-09-08T21:03:01.705Z",
  "devdoc": {
    "methods": {}
  },
  "userdoc": {
    "methods": {}
  }
}